:100000000C942A000C9447000C9447000C94470071
:100010000C9447000C9447000C9447000C94470044
:100020000C9447000C9447000C9447000C94470034
:100030000C9447000C9447000C9447000C94470024
:100040000C9447000C9447000C9447000C94470014
:100050000C94470011241FBECFE5D8E0DEBFCDBF12
:1000600010E0A0E6B0E0EAE5F4E002C005900D92F1
:10007000A037B107D9F720E0A0E7B0E001C01D929A
:10008000A237B207E1F70E941E020C942B020C94D7
:100090000000FB012181213039F42081E82FF92F64
:1000A0008291822B80830895FB01208130E020958E
:1000B0003095E82FF92F829128232083089541302D
:1000C00029F4FC012081622B608308956095FC0176
:1000D000208162236083089541E068E088E390E036
:1000E0000E945F0083ED90E30197F1F700C00000EC
:1000F00040E068E088E390E00E945F000895EF929E
:10010000FF920F931F93CF93DF93C0E7D0E010E1EE
:1001100018831982BE018BE390E00E944900689425
:10012000EE24E5F8E8821982BE018BE390E00E949C
:1001300049006894FF24F6F8F8821982BE018BE327
:1001400090E00E94490000E808831982BE018BE319
:1001500090E00E94490041E064E088E390E00E9462
:100160005F0041E062E088E390E00E945F000E944F
:100170006C00188311E01983BE018BE390E00E94AC
:100180004900E8821983BE018BE390E00E94490098
:10019000F8821983BE018BE390E00E944900088336
:1001A0001983BE018BE390E00E94490040E064E0C7
:1001B00088E390E00E945F00DF91CF911F910F9143
:1001C000FF90EF900895CF93C82F0E947F008BB3CC
:1001D0008F709C2F907F892B8BBB40E064E088E37D
:1001E00090E00E945F0040E062E088E390E00E94BF
:1001F0005F000E946C002BB330E1C39FC00111244B
:10020000922F9F70892B8BBB40E064E088E390E0E5
:100210000E945F0040E062E088E390E00E945F009F
:100220000E946C00CF91089581E00E94E300089540
:10023000CF93DF93C82FD62F813031F4603120F473
:1002400080E8860F0E94E300C23031F4D03120F400
:1002500080EC8D0F0E94E300DF91CF910895EF9223
:10026000FF920F931F93CF93DF9387E893E101975A
:10027000F1F700C00000C0E7D0E008E0088311E01B
:100280001983BE0188E390E00E9449006894EE243F
:10029000E1F8E8821983BE0188E390E00E944900FA
:1002A0006894FF24F2F8F8821983BE0188E390E095
:1002B0000E94490040E068E088E390E00E945F000F
:1002C00040E062E088E390E00E945F0040E064E08C
:1002D00088E390E00E945F0018831983BE018BE3DE
:1002E00090E00E944900E8821983BE018BE390E010
:1002F0000E944900F8821983BE018BE390E00E94BE
:10030000490008831983BE018BE390E00E944900F5
:1003100080E188831983BE018BE390E00E9449004D
:1003200080E288831983BE018BE390E00E9449003C
:1003300080E488831983BE018BE390E00E9449002A
:1003400080E888831983BE018BE390E00E94490016
:1003500085EA9EE00197F1F700C000000E941401B9
:1003600082E00E94E30088E20E94E30086E00E94AF
:10037000E30080E80E94E3008FE00E94E300DF9149
:10038000CF911F910F91FF90EF900895CF93C82FB9
:100390008BB38F709C2F907F892B8BBB41E062E0E9
:1003A00088E390E00E945F0040E064E088E390E032
:1003B0000E945F000E946C002BB330E1C39FC0011C
:1003C0001124922F9F70892B8BBB41E062E088E360
:1003D00090E00E945F0040E064E088E390E00E94CB
:1003E0005F000E946C00CF9108950F931F93CF93ED
:1003F000DF938C01C0E0D0E018C021960F5F1F4F43
:100400000E94C601C031D10529F460E082E00E945B
:1004100018010BC0C032D10541F40E94140160E004
:1004200081E00E941801C0E0D0E0F80180818111D4
:10043000E4CFDF91CF911F910F9108950E942F017A
:1004400083ED90E30197F1F700C0000080E690E0B3
:0A0450000E94F501FFCFF894FFCFE2
:10045A004C4541524E20494E2044455054480000D4
:00000001FF
