S01B00006C63645F6B65797061645F73656374696F6E322E7372656373
S11300000C9448000C9465000C9465000C946500F5
S11300100C9465000C9465000C9465000C946500C8
S11300200C9465000C9465000C9465000C946500B8
S11300300C9465000C9465000C9465000C946500A8
S11300400C9465000C9465000C9465000C94650098
S11300500C9465004E414E494E495459494E46CD83
S1130060CCCC3D0AD7233C17B7D13877CC2B32956B
S113007095E6241FB14F0A000020410000C8420049
S1130080401C4620BCBE4CCA1B0E5AAEC59D740013
S113009011241FBECFE5D8E0DEBFCDBF10E0A0E63F
S11300A0B0E0E2EEF4E102C005900D92A038B10791
S11300B0D9F720E0A0E8B0E001C01D92A93AB20748
S11300C0E1F70E94E4020C946F0A0C940000CF92B2
S11300D0DF92EF92FF920F931F93CF937C018B01DA
S11300E0C42F60E082E00E94CA01CB3259F4C701F8
S11300F00E94D3056C01C8010E94D3058C0D9D1D7F
S11301000E944202CD3269F4C7010E94D3056C01FA
S1130110C8010E94D3059601281B390BC9010E940E
S11301204202CA3289F4C7010E94D3056C01C80196
S11301300E94D3059C01C29EC001C39E900DD29E15
S1130140900D11240E944202CF3281F4C7010E9413
S1130150CF056B017C01C8010E94CF059B01AC0156
S1130160C701B6010E9408040E946F02CF911F913B
S11301700F91FF90EF90DF90CF90089581B3807F2F
S113018081BB81B3806F81BB8FEF82BB08950F93D6
S11301901F93CF93DF9340E050E09DC032B3E0E67D
S11301A0F0E081E090E08C01008002C0000F111F9C
S11301B00A94E2F7EC01028002C0CC0FDD1F0A941E
S11301C0E2F7DC01048002C0AA0FBB1F0A94E2F725
S11301D0BC01068002C0660F771F0A94E2F72C2F39
S11301E0202B2A2B262B232B22BB22B3FA01EE0F22
S11301F0FF1FE05AFF4F008002C0880F991F0A9426
S1130200E2F78095822382BB60E070E05EC080B339
S1130210FB01EE0FFF1FE859FF4F208190E0022EF3
S113022002C0959587950A94E2F780FD4CC080B38F
S113023090E0022E02C0959587950A94E2F780FF1C
S1130240F6CF41305105C9F024F44115510541F070
S11302503AC042305105F1F04330510541F133C009
S113026061157105F1F161307105E9F162307105D3
S1130270E1F16330710539F53AC061157105C9F1D1
S113028061307105C1F162307105B9F163307105F6
S1130290D1F435C061157105A1F16130710599F191
S11302A06230710591F16330710569F430C06115F4
S11302B0710579F16130710571F16230710569F18F
S11302C06330710561F16F5F7F4F643071050CF429
S11302D09ECF4F5F5F4F443051050CF45FCF8EE4E7
S11302E01FC087E31DC084E31BC081E319C08FE3F3
S11302F017C088E315C085E313C082E311C080E30F
S11303000FC089E30DC086E30BC083E309C08DE30E
S113031007C08FE205C08AE203C08DE201C08BE210
S1130320DF91CF911F910F91089588B3886088BBA6
S113033083ED90E30197F1F700C0000088B3877F55
S113034088BB08958AB38F708ABB88B3846088BBE6
S113035088B38D7F88BB0E9495018AB3806F8ABB66
S113036088B38B7F88BB0895CF93C82F0E94A201C6
S1130370CBBB88B3897F88BB89EF90E00197F1F705
S113038000C000000E949501CF91089581E00E9471
S1130390B4010895CF93DF93C82FD62F813031F461
S11303A0603120F480E8860F0E94B401C23031F439
S11303B0D03120F480EC8D0F0E94B401DF91CF91F5
S11303C0089587E893E10197F1F700C0000087B32F
S11303D08E6087BB88B3817F88BB8FEF8ABB85EA39
S11303E09EE00197F1F700C000000E94C60188E377
S11303F00E94B40186E00E94B40180E80E94B40126
S11304008FE00E94B4010895CF93C82F0E94A201E7
S1130410CBBB88B38B7F88BB88B3826088BB89EFF2
S113042090E00197F1F700C000000E949501CF9180
S113043008950F931F93CF93DF938C01C0E0D0E016
S113044018C021960F5F1F4F0E940402C031D105CE
S113045029F460E082E00E94CA010BC0C032D105D9
S113046041F40E94C60160E081E00E94CA01C0E03C
S1130470D0E0F80180818111E4CFDF91CF911F9109
S11304800F9108950F931F93CF93DF93CDB7DEB7EA
S113049060970FB6F894DEBF0FBECDBF9F938F93C6
S11304A080E790E09F938F938E010F5F1F4F1F9300
S11304B00F930E94F905C8010E9419020F900F9032
S11304C00F900F900F900F9060960FB6F894DEBFC8
S11304D00FBECDBFDF91CF911F910F9108958F92E1
S11304E09F92AF92BF92CF92DF92EF92FF920F93BF
S11304F01F93CF93DF93CDB7DEB760970FB6F89411
S1130500DEBF0FBECDBF6B017C0120E030E0A9014E
S11305100E94030488231CF403E710E002C004E7EC
S113052010E020E030E0A901C701B6010E940304F5
S1130530882324F4F7FAF094F7F8F094C701B6018D
S11305400E947A044B015C01072E000C880B990B66
S11305500E94B2049B01AC01C701B6010E9496033C
S113056020E030E04AE754E40E9462050E947A04E5
S11305707F936F939F928F921F930F9385E790E0E1
S11305809F938F938E010F5F1F4F1F930F930E94B2
S1130590F905C8010E9419020FB6F894DEBF0FBE18
S11305A0CDBF60960FB6F894DEBF0FBECDBFDF910E
S11305B0CF911F910F91FF90EF90DF90CF90BF905C
S11305C0AF909F908F9008950E94E10183ED90E396
S11305D00197F1F700C000000E94BE000E94C7000E
S11305E0C82F8F3319F581E00E94B40160E081E0E7
S11305F00E94CA0180E090E009C0FC01EA56FF4F66
S11306001082FC01EA57FF4F108201968031910558
S1130610A4F310928500109284001092830010922B
S113062082001092810010928000D8CF8E34B1F2F3
S113063091E08B3209F090E081E0CD3209F080E066
S1130640982B81E0CA3209F080E021E0CF3209F032
S113065020E0892B11F4222391F08C2F0E940402B4
S113066089EF90E00197F1F700C0000081E090E08D
S11306709093810080938000C093A600AFCFCD33C8
S1130680F1F48C2F0E94040289EF90E00197F1F7B6
S113069000C000004091A60066E870E086E990E0A2
S11306A00E946700109285001092840010928300CB
S11306B01092820010928100109280008FCF80915E
S11306C08000909181000097B9F48C2F0E9404025D
S11306D089EF90E00197F1F700C000008091840059
S11306E090918500FC01EA56FF4FC08301969093D8
S11306F085008093840072CF019709F06FCF8C2F0F
S11307000E94040289EF90E00197F1F700C0000015
S11307108091820090918300FC01EA57FF4FC083CF
S11307200196909383008093820058CF5058BB2742
S1130730AA270E94AE030C9428050E941A0538F0DB
S11307400E94210520F039F49F3F19F426F40C94FB
S113075017050EF4E095E7FB0C941105E92F0E94B0
S1130760390558F3BA17620773078407950720F011
S113077079F4A6F50C945B050EF4E0950B2EBA2FD4
S1130780A02D0B01B90190010C01CA01A001112493
S1130790FF27591B99F0593F50F4503E68F11A163F
S11307A0F040A22F232F342F4427585FF3CF4695D0
S11307B037952795A795F0405395C9F77EF41F16F2
S11307C0BA0B620B730B840BBAF09150A1F0FF0FBC
S11307D0BB1F661F771F881FC2F70EC0BA0F621FA8
S11307E0731F841F48F4879577956795B795F79598
S11307F09E3F08F0B0CF9395880F08F09927EE0F2D
S11308009795879508950E94ED0408F481E0089572
S11308100E941C040C9428050E94210558F00E9493
S11308201A0540F029F45F3F29F00C941105511189
S11308300C945C050C9417050E94390568F3992300
S1130840B1F3552391F3951B550BBB27AA276217C8
S11308507307840738F09F5F5F4F220F331F441FD5
S1130860AA1FA9F335D00E2E3AF0E0E832D0915009
S11308705040E695001CCAF72BD0FE2F29D0660FF6
S1130880771F881FBB1F261737074807AB07B0E839
S113089009F0BB0B802DBF01FF2793585F4F3AF03F
S11308A09E3F510578F00C9411050C945C055F3F54
S11308B0E4F3983ED4F3869577956795B795F795C5
S11308C09F5FC9F7880F911D9695879597F90895AD
S11308D0E1E0660F771F881FBB1F62177307840749
S11308E0BA0720F0621B730B840BBA0BEE1F88F758
S11308F0E09508950E9481046894B1110C945C05FC
S113090008950E94410588F09F5798F0B92F9927C0
S1130910B751B0F0E1F0660F771F881F991F1AF0E6
S1130920BA95C9F714C0B13091F00E945B05B1E0EB
S113093008950C945B05672F782F8827B85F39F0EA
S1130940B93FCCF3869577956795B395D9F73EF47F
S113095090958095709561957F4F8F4F9F4F089527
S1130960E89409C097FB3EF4909580957095619545
S11309707F4F8F4F9F4F9923A9F0F92F96E9BB27FB
S11309809395F695879577956795B795F111F8CF77
S1130990FAF4BB0F11F460FF1BC06F5F7F4F8F4FE2
S11309A09F4F16C0882311F096E911C0772321F0D8
S11309B09EE8872F762F05C0662371F096E8862F70
S11309C070E060E02AF09A95660F771F881FDAF7C7
S11309D0880F9695879597F90895990F0008550FF4
S11309E0AA0BE0E8FEEF16161706E807F907C0F0B1
S11309F012161306E407F50798F0621B730B840BB9
S1130A00950B39F40A2661F0232B242B252B21F492
S1130A1008950A2609F4A140A6958FEF811D811D32
S1130A20089597F99F6780E870E060E008959FEF6C
S1130A3080EC089500240A94161617061806090671
S1130A40089500240A941216130614060506089540
S1130A50092E0394000C11F4882352F0BB0F40F4C8
S1130A60BF2B11F460FF04C06F5F7F4F8F4F9F4F08
S1130A70089557FD9058440F551F59F05F3F71F08A
S1130A804795880F97FB991F61F09F3F79F08795F1
S1130A900895121613061406551FF2CF4695F1DF7A
S1130AA008C0161617061806991FF1CF869571050A
S1130AB0610508940895E894BB2766277727CB013E
S1130AC097F908950E9475050C9428050E941A054B
S1130AD038F00E94210520F0952311F00C941105A3
S1130AE00C94170511240C945C050E94390570F3CD
S1130AF0959FC1F3950F50E0551F629FF001729FBF
S1130B00BB27F00DB11D639FAA27F00DB11DAA1FCD
S1130B10649F6627B00DA11D661F829F2227B00D1A
S1130B20A11D621F739FB00DA11D621F839FA00DA5
S1130B30611D221F749F3327A00D611D231F849FF5
S1130B40600D211D822F762F6A2F11249F5750404C
S1130B509AF0F1F088234AF0EE0FFF1FBB1F661FC7
S1130B60771F881F91505040A9F79E3F510580F090
S1130B700C9411050C945C055F3FE4F3983ED4F3A8
S1130B80869577956795B795F795E7959F5FC1F734
S1130B90FE2B880F911D9695879597F908956627E2
S1130BA077270C94FC07FC0188279927E894219166
S1130BB02032E9F3293010F02E30C8F32B3241F003
S1130BC02D3239F4689404C00E94F105820F911DFE
S1130BD0219120532A30C0F31EF4909581959F4FA4
S1130BE008957AE0979F902D879F802D910D112471
S1130BF00895AEE0B0E0EFEFF5E00C94370A0D890C
S1130C001E8986E08C831A8309838FEF9FE79E8376
S1130C108D83AE01475E5F4F6F89788DCE0101965B
S1130C200E941B06EF81F885E00FF11F10822E96BB
S1130C30E4E00C94530AABE0B0E0E1E2F6E00C949B
S1130C40290A6C017B018A01FC01178216828381C7
S1130C5081FFCCC1CE0101963C01F6019381F701DD
S1130C6093FD859193FF81917F01882309F4BAC193
S1130C70853239F493FD859193FF81917F0185320B
S1130C8029F4B60190E00E948109E7CF912C212C30
S1130C90312CFFE1F315D8F08B3279F038F480323F
S1130CA079F08332A1F4232D20611DC08D3261F0CF
S1130CB0803369F4232D216016C0832D8260382E81
S1130CC0E32DE4603E2E2AC0F32DF8601DC037FCEE
S1130CD02DC020ED280F2A3040F08E32B9F436FCB6
S1130CE081C1232D2064322E19C036FE06C08AE04D
S1130CF0989E200D1124922E11C0EAE02E9E200D04
S1130D001124222EF32DF0623F2E08C08C3621F4DC
S1130D10832D8068382E02C0883641F4F70193FD94
S1130D20859193FF81917F018111B3CF982F9F7D8E
S1130D309554933028F40C5F1F4F9FE399830DC0A3
S1130D40833631F0833771F0833509F059C021C0FF
S1130D50F801808189830E5F1F4F88248394912C2E
S1130D60530113C02801F2E04F0E511CF801A0807A
S1130D70B18036FE03C0692D70E002C06FEF7FEFD3
S1130D80C5010E9476094C018201F32DFF773F2EA5
S1130D9016C0280122E0420E511CF801A080B18047
S1130DA036FE03C0692D70E002C06FEF7FEFC5010E
S1130DB00E946B094C01F32DF0683F2E820133FC35
S1130DC01BC0822D90E088169906B0F4B60180E22B
S1130DD090E00E9481092A94F4CFF50137FC8591B3
S1130DE037FE81915F01B60190E00E9481092110D4
S1130DF02A9421E0821A91088114910471F7E8C0C1
S1130E00843611F0893641F5F80137FE07C0608158
S1130E107181828193810C5F1F4F08C06081718151
S1130E20072E000C880B990B0E5F1F4FF32DFF76D6
S1130E303F2E97FF09C090958095709561957F4FDF
S1130E408F4F9F4FF0683F2E2AE030E0A3010E94AD
S1130E50BD09882E861845C0853731F4232D2F7E91
S1130E60B22E2AE030E025C0932D997FB92E8F361B
S1130E70C1F018F4883579F0B5C0803719F0883797
S1130E8021F0B0C0E92FE061BE2EB4FE0DC0FB2DF1
S1130E90F460BF2E09C034FE0AC0292F2660B22E8A
S1130EA006C028E030E005C020E130E002C020E1C7
S1130EB032E0F801B7FE07C06081718182819381BD
S1130EC00C5F1F4F06C06081718180E090E00E5F6F
S1130ED01F4FA3010E94BD09882E8618FB2DFF77A2
S1130EE03F2E36FE0DC0232D2E7FA22E891458F4DA
S1130EF034FE0BC032FC09C0832D8E7EA82E05C0A3
S1130F00B82CA32C03C0B82C01C0B92CA4FE0FC06C
S1130F10FE01E80DF11D8081803321F49A2D997E24
S1130F20A92E09C0A2FE06C0B394B39404C08A2DAE
S1130F30867809F0B394A3FC11C0A0FE06C0B214D5
S1130F4088F4280C922C9B180EC0B21460F4B601DD
S1130F5080E290E00E948109B394F7CFB21418F4B0
S1130F602B1802C0982C212CA4FE10C0B60180E3DB
S1130F7090E00E948109A2FE17C0A1FC03C088E78B
S1130F8090E002C088E590E0B6010CC08A2D867816
S1130F9059F0A1FE02C08BE201C080E2A7FC8DE201
S1130FA0B60190E00E948109891438F4B60180E307
S1130FB090E00E9481099A94F7CF8A94F301E80D96
S1130FC0F11D8081B60190E00E9481098110F5CF66
S1130FD0222009F442CEB60180E290E00E94810909
S1130FE02A94F6CFF6018681978102C08FEF9FEF96
S1130FF02B96E2E10C94450AA0E0B0E0E2E0F8E0D0
S11310000C942F0AEC016B016115710519F0FB01B9
S1131010918380837E01FFEFEF1AFF0A0881802FFE
S113102090E00E944A09892B11F0E701F3CF0D32B9
S113103039F47E0182E0E80EF11C098111E008C058
S11310400B3229F47E0192E0E90EF11C098110E0D3
S1131050E701219743E050E06CE570E0CE010E9487
S11310605309892BC1F4239645E050E067E570E00D
S1131070CE010E945309892B09F42596C114D10489
S113108019F0F601D183C0831111F6C060E070E05D
S113109080E89FE7FAC043E050E064E570E0CE01E9
S11310A00E945309892B59F4C114D10409F4E9C0ED
S11310B0F2E0EF0EF11CF601F182E082E2C020E0E2
S11310C030E0A901C0E0D0E0F70180EDA82EA00E29
S11310D089E08A1530F1912F9260B92E812F8870A2
S11310E012FF04C0811124C0219622C081112197CE
S11310F0A5E0B0E00E941E0ADC01CB01880F991F15
S1131100AA1FBB1F9C01AD012A0D311D411D511D9C
S1131110283989E93807480789E1580748F01660F3
S113112006C09EEFA9120AC013FD40C01860B12E7C
S11311308FEFE81AF80A00811B2DC6CF802F8F7D10
S11311408534A1F580818D3211F4106106C08B3293
S113115021F0319661E070E004C08181329662E052
S113116070E080538A3018F0E61BF70B1FC060E074
S113117070E060389CE079075CF4DB01AA0FBB1FC8
S1131180AA0FBB1F6A0F7B1F660F771F680F711DA5
S11311903196DF0111978C9180538A3050F314FFFC
S11311A003C0719561957109C60FD71F11FF08C05F
S11311B0C114D10429F0CF010197F60191838083F2
S11311C0CA01B9010E94B004212F2370233019F001
S11311D04B015C0106C04B015C01B7FAB094B7F84F
S11311E0B09420E030E0A901C501B4010E940304D9
S11311F0882309F43EC0D7FF06C0D195C195D10913
S113120003E710E002C00BE810E06801F8E1CF1A30
S1131210D10890E2E92EF12CCE15DF0574F0F80127
S11312202591359145915491C501B4010E946205FF
S11312304B015C01CE19DF09EFCF04501109F5947D
S1131240E7940C151D0541F78A2D880F8B2D881FF7
S11312508F3F49F020E030E0A901C501B4010E94AC
S11312600304811106C082E290E09093A800809369
S1131270A700C501B40109C060E070E080E89FEFF9
S113128004C060E070E080EC9FE7CDB7DEB7ECE02F
S11312900C944B0A91110C941B0A803219F089505A
S11312A08550C8F70895FB01DC014150504088F097
S11312B08D9181341CF08B350CF4805E6591613422
S11312C01CF06B350CF4605E861B611171F3990B95
S11312D00895881BFCCFFC010590615070400110FB
S11312E0D8F7809590958E0F9F1F0895FC0161504B
S11312F0704001900110D8F7809590958E0F9F1F34
S113130008950F931F93CF93DF93FB01238121FD56
S113131003C08FEF9FEF2CC022FF16C04681578178
S1131320248135814217530744F4A081B1819D0182
S11313302F5F3F4F318320838C93268137812F5F2A
S11313403F4F3783268314C08B01EC01FB010084DB
S1131350F185E02D0995892BE1F6D80116968D913A
S11313609C911797019617969C938E931697CE018E
S1131370DF91CF911F910F910895FA01AA27283088
S113138051F1203181F1E8946F936E7F6E5F7F4F4E
S11313908F4F9F4FAF4FB1E03ED0B4E03CD0670FCA
S11313A0781F891F9A1FA11D680F791F8A1F911D1D
S11313B0A11D6A0F711D811D911DA11D20D009F46D
S11313C068943F912AE0269F11243019305D3193AF
S11313D0DEF6CF010895462F4770405D4193B3E098
S11313E00FD0C9F7F6CF462F4F70405D4A3318F03F
S11313F0495D31FD4052419302D0A9F7EACFB4E0F0
S1131400A6959795879577956795BA95C9F70097A7
S11314106105710508959B01AC010A2E0694579548
S1131420479537952795BA95C9F7620F731F841F9F
S1131430951FA01D08959927882708950E94600A82
S1131440A59F900DB49F900DA49F800D911D112414
S113145008952F923F924F925F926F927F928F9254
S11314609F92AF92BF92CF92DF92EF92FF920F932F
S11314701F93CF93DF93CDB7DEB7CA1BDB0B0FB639
S1131480F894DEBF0FBECDBF09942A8839884888F6
S11314905F846E847D848C849B84AA84B984C8848C
S11314A0DF80EE80FD800C811B81AA81B981CE0F83
S11314B0D11D0FB6F894DEBF0FBECDBFED01089568
S11314C0A29FB001B39FC001A39F700D811D112481
S11314D0911DB29F700D811D1124911D0895F894E2
S10514E0FFCF38
S11314E204000500060007000000010002000300DA
S11314F22564002D00257325642E253033640000F5
S9030000FC
