S011000053656374696F6E5F312E73726563AE
S11300000C942A000C9447000C9447000C9447006D
S11300100C9447000C9447000C9447000C94470040
S11300200C9447000C9447000C9447000C94470030
S11300300C9447000C9447000C9447000C94470020
S11300400C9447000C9447000C9447000C94470010
S11300500C94470011241FBECFE5D8E0DEBFCDBF0E
S113006010E0A0E6B0E0ECE5F4E002C005900D92EB
S1130070A837B107D9F720E0A8E7B0E001C01D9286
S1130080AE38B207E1F70E9495010C942C020C944F
S1130090000041E068E088E390E00E94EB0183ED1A
S11300A090E30197F1F700C0000040E068E088E3C6
S11300B090E00E94EB010895CF93C82F8BB38F700B
S11300C09C2F907F892B8BBB40E064E088E390E019
S11300D00E94EB0140E062E088E390E00E94EB01C3
S11300E00E9449002BB330E1C39FC0011124922F19
S11300F09F70892B8BBB40E064E088E390E00E9412
S1130100EB0140E062E088E390E00E94EB010E9492
S11301104900CF91089581E00E945C000895CF9337
S1130120DF93C82FD62F813031F4603120F480E87A
S1130130860F0E945C00C23031F4D03120F480EC90
S11301408D0F0E945C00DF91CF910895EF92FF9292
S11301500F931F93CF93DF9387E893E10197F1F710
S113016000C00000C8E7D0E008E0088311E019836C
S1130170BE0188E390E00E94D5016894EE24E1F882
S1130180E8821983BE0188E390E00E94D501689457
S1130190FF24F2F8F8821983BE0188E390E00E94FC
S11301A0D50140E068E088E390E00E94EB0140E084
S11301B062E088E390E00E94EB0140E064E088E3C1
S11301C090E00E94EB0118831983BE018BE390E059
S11301D00E94D501E8821983BE018BE390E00E945E
S11301E0D501F8821983BE018BE390E00E94D5010A
S11301F008831983BE018BE390E00E94D50180E15E
S113020088831983BE018BE390E00E94D50180E2CC
S113021088831983BE018BE390E00E94D50180E4BA
S113022088831983BE018BE390E00E94D50180E8A6
S113023088831983BE018BE390E00E94D50185EA8F
S11302409EE00197F1F700C000000E948B0082E05D
S11302500E945C0088E20E945C0086E00E945C00D0
S113026080E80E945C008FE00E945C00DF91CF91E7
S11302701F910F91FF90EF900895CF93C82F8BB3E8
S11302808F709C2F907F892B8BBB41E062E088E3C9
S113029090E00E94EB0140E064E088E390E00E947B
S11302A0EB010E9449002BB330E1C39FC00111242C
S11302B0922F9F70892B8BBB41E062E088E390E032
S11302C00E94EB0140E064E088E390E00E94EB01CF
S11302D00E944900CF9108950F931F93CF93DF930A
S11302E08C01C0E0D0E018C021960F5F1F4F0E9420
S11302F03D01C031D10529F460E082E00E948F0005
S11303000BC0C032D10541F40E948B0060E081E053
S11303100E948F00C0E0D0E0F80180818111E4CF19
S1130320DF91CF911F910F910895CF93DF93CDB7B4
S1130330DEB72F970FB6F894DEBF0FBECDBF0E9475
S1130340A6000E94F80160E081E00E948F0080E630
S113035090E00E946C012FED83E994E021508040ED
S11303609040E1F700C000008FE0E8E6F0E0DE0135
S1130370119601900D928A95E1F7CE0101960E94A3
S11303800C0260E082E00E948F000E941C020E9426
S11303906C012FE784E89EE1215080409040E1F712
S11303A000C000000E948B00ECCFFB0121812130B2
S11303B039F42081E82FF92F8291822B80830895CC
S11303C0FB01208130E020953095E82FF92F8291B0
S11303D0282320830895413029F4FC012081622BD5
S11303E0608308956095FC012081622360830895F1
S11303F083E389B98BB18D7F8BB98AB188608AB95F
S11304008AB180618AB908955D9BFECF8CB9089545
S11304105F9BFECF8CB10895CF93DF93EC0188816D
S1130420811103C00E94040204C00E9404022196A8
S1130430F6CFDF91CF910895CF93DF93CAE7D0E051
S11304400E9408028883833211F02196F9CF8AE74B
S10F045090E0DF91CF910895F894FFCF65
S113045C55415254205452004C6561726E20696EA1
S10B046C20646570746800004F
S9030000FC
